{
  "contractName": "Crowdfunding",
  "abi": [
    {
      "anonymous": false,
      "inputs": [
        {
          "indexed": false,
          "internalType": "uint256",
          "name": "campaignId",
          "type": "uint256"
        },
        {
          "indexed": false,
          "internalType": "uint256",
          "name": "totalFunds",
          "type": "uint256"
        }
      ],
      "name": "CampaignCompleted",
      "type": "event"
    },
    {
      "anonymous": false,
      "inputs": [
        {
          "indexed": false,
          "internalType": "uint256",
          "name": "campaignId",
          "type": "uint256"
        },
        {
          "indexed": false,
          "internalType": "string",
          "name": "name",
          "type": "string"
        },
        {
          "indexed": false,
          "internalType": "string",
          "name": "creatorName",
          "type": "string"
        },
        {
          "indexed": false,
          "internalType": "address",
          "name": "creator",
          "type": "address"
        },
        {
          "indexed": false,
          "internalType": "uint256",
          "name": "goal",
          "type": "uint256"
        }
      ],
      "name": "CampaignCreated",
      "type": "event"
    },
    {
      "anonymous": false,
      "inputs": [
        {
          "indexed": true,
          "internalType": "address",
          "name": "user",
          "type": "address"
        },
        {
          "indexed": false,
          "internalType": "string",
          "name": "message",
          "type": "string"
        }
      ],
      "name": "UserVerified",
      "type": "event"
    },
    {
      "inputs": [
        {
          "internalType": "uint256",
          "name": "",
          "type": "uint256"
        }
      ],
      "name": "activeCampaigns",
      "outputs": [
        {
          "internalType": "string",
          "name": "name",
          "type": "string"
        },
        {
          "internalType": "string",
          "name": "creatorName",
          "type": "string"
        },
        {
          "internalType": "string",
          "name": "description",
          "type": "string"
        },
        {
          "internalType": "address payable",
          "name": "creator",
          "type": "address"
        },
        {
          "internalType": "uint256",
          "name": "goal",
          "type": "uint256"
        },
        {
          "internalType": "uint256",
          "name": "funds",
          "type": "uint256"
        },
        {
          "internalType": "bool",
          "name": "completed",
          "type": "bool"
        }
      ],
      "stateMutability": "view",
      "type": "function",
      "constant": true
    },
    {
      "inputs": [
        {
          "internalType": "uint256",
          "name": "",
          "type": "uint256"
        }
      ],
      "name": "completedCampaigns",
      "outputs": [
        {
          "internalType": "string",
          "name": "name",
          "type": "string"
        },
        {
          "internalType": "string",
          "name": "creatorName",
          "type": "string"
        },
        {
          "internalType": "string",
          "name": "description",
          "type": "string"
        },
        {
          "internalType": "address payable",
          "name": "creator",
          "type": "address"
        },
        {
          "internalType": "uint256",
          "name": "goal",
          "type": "uint256"
        },
        {
          "internalType": "uint256",
          "name": "funds",
          "type": "uint256"
        },
        {
          "internalType": "bool",
          "name": "completed",
          "type": "bool"
        }
      ],
      "stateMutability": "view",
      "type": "function",
      "constant": true
    },
    {
      "inputs": [
        {
          "internalType": "string",
          "name": "_message",
          "type": "string"
        }
      ],
      "name": "logUserVerification",
      "outputs": [],
      "stateMutability": "nonpayable",
      "type": "function"
    },
    {
      "inputs": [
        {
          "internalType": "string",
          "name": "_name",
          "type": "string"
        },
        {
          "internalType": "string",
          "name": "_creatorName",
          "type": "string"
        },
        {
          "internalType": "string",
          "name": "_description",
          "type": "string"
        },
        {
          "internalType": "uint256",
          "name": "_goal",
          "type": "uint256"
        },
        {
          "internalType": "string[]",
          "name": "_milestoneNames",
          "type": "string[]"
        },
        {
          "internalType": "uint256[]",
          "name": "_milestoneGoals",
          "type": "uint256[]"
        }
      ],
      "name": "createCampaign",
      "outputs": [],
      "stateMutability": "nonpayable",
      "type": "function"
    },
    {
      "inputs": [
        {
          "internalType": "uint256",
          "name": "_campaignId",
          "type": "uint256"
        },
        {
          "internalType": "uint256",
          "name": "_milestoneId",
          "type": "uint256"
        }
      ],
      "name": "donateToMilestone",
      "outputs": [],
      "stateMutability": "payable",
      "type": "function",
      "payable": true
    },
    {
      "inputs": [],
      "name": "getActiveCampaigns",
      "outputs": [
        {
          "components": [
            {
              "internalType": "string",
              "name": "name",
              "type": "string"
            },
            {
              "internalType": "string",
              "name": "creatorName",
              "type": "string"
            },
            {
              "internalType": "string",
              "name": "description",
              "type": "string"
            },
            {
              "internalType": "address payable",
              "name": "creator",
              "type": "address"
            },
            {
              "internalType": "uint256",
              "name": "goal",
              "type": "uint256"
            },
            {
              "internalType": "uint256",
              "name": "funds",
              "type": "uint256"
            },
            {
              "internalType": "bool",
              "name": "completed",
              "type": "bool"
            },
            {
              "components": [
                {
                  "internalType": "string",
                  "name": "name",
                  "type": "string"
                },
                {
                  "internalType": "uint256",
                  "name": "goal",
                  "type": "uint256"
                },
                {
                  "internalType": "uint256",
                  "name": "funds",
                  "type": "uint256"
                }
              ],
              "internalType": "struct Crowdfunding.Milestone[]",
              "name": "milestones",
              "type": "tuple[]"
            }
          ],
          "internalType": "struct Crowdfunding.Campaign[]",
          "name": "",
          "type": "tuple[]"
        }
      ],
      "stateMutability": "view",
      "type": "function",
      "constant": true
    },
    {
      "inputs": [],
      "name": "getCompletedCampaigns",
      "outputs": [
        {
          "components": [
            {
              "internalType": "string",
              "name": "name",
              "type": "string"
            },
            {
              "internalType": "string",
              "name": "creatorName",
              "type": "string"
            },
            {
              "internalType": "string",
              "name": "description",
              "type": "string"
            },
            {
              "internalType": "address payable",
              "name": "creator",
              "type": "address"
            },
            {
              "internalType": "uint256",
              "name": "goal",
              "type": "uint256"
            },
            {
              "internalType": "uint256",
              "name": "funds",
              "type": "uint256"
            },
            {
              "internalType": "bool",
              "name": "completed",
              "type": "bool"
            },
            {
              "components": [
                {
                  "internalType": "string",
                  "name": "name",
                  "type": "string"
                },
                {
                  "internalType": "uint256",
                  "name": "goal",
                  "type": "uint256"
                },
                {
                  "internalType": "uint256",
                  "name": "funds",
                  "type": "uint256"
                }
              ],
              "internalType": "struct Crowdfunding.Milestone[]",
              "name": "milestones",
              "type": "tuple[]"
            }
          ],
          "internalType": "struct Crowdfunding.Campaign[]",
          "name": "",
          "type": "tuple[]"
        }
      ],
      "stateMutability": "view",
      "type": "function",
      "constant": true
    }
  ],
  "bytecode": "0x608060405234801561001057600080fd5b506128bc806100206000396000f3fe6080604052600436106100705760003560e01c806355b73b8c1161004e57806355b73b8c146100e55780636ab816b21461010e57806394470d5114610151578063c362b1561461019457610070565b8063178c8cee14610075578063274ac13b1461009e5780633c3ae5b8146100ba575b600080fd5b34801561008157600080fd5b5061009c60048036038101906100979190611b91565b6101bf565b005b6100b860048036038101906100b39190611cfc565b610210565b005b3480156100c657600080fd5b506100cf6108ca565b6040516100dc9190612286565b60405180910390f35b3480156100f157600080fd5b5061010c60048036038101906101079190611bd2565b610c6a565b005b34801561011a57600080fd5b5061013560048036038101906101309190611cd3565b610fd2565b60405161014897969594939291906122ca565b60405180910390f35b34801561015d57600080fd5b5061017860048036038101906101739190611cd3565b6111e9565b60405161018b97969594939291906122ca565b60405180910390f35b3480156101a057600080fd5b506101a9611400565b6040516101b69190612286565b60405180910390f35b3373ffffffffffffffffffffffffffffffffffffffff167fb9a56ef3335a4b13b2aa51519b56125ab2316b50d587ad80edfce74fe9a4b7d38260405161020591906122a8565b60405180910390a250565b6000805490508210610257576040517f08c379a000000000000000000000000000000000000000000000000000000000815260040161024e9061240e565b60405180910390fd5b6000808381548110610292577f4e487b7100000000000000000000000000000000000000000000000000000000600052603260045260246000fd5b906000526020600020906008020190508060060160009054906101000a900460ff16156102f4576040517f08c379a00000000000000000000000000000000000000000000000000000000081526004016102eb906123ee565b60405180910390fd5b8060070180549050821061033d576040517f08c379a0000000000000000000000000000000000000000000000000000000008152600401610334906123ce565b60405180910390fd5b60003411610380576040517f08c379a00000000000000000000000000000000000000000000000000000000081526004016103779061236e565b60405180910390fd5b60008160070183815481106103be577f4e487b7100000000000000000000000000000000000000000000000000000000600052603260045260246000fd5b9060005260206000209060030201905080600101543482600201546103e39190612630565b1115610424576040517f08c379a000000000000000000000000000000000000000000000000000000000815260040161041b9061238e565b60405180910390fd5b348160020160008282546104389190612630565b92505081905550348260050160008282546104539190612630565b9250508190555080600101548160020154148015610478575081600401548260050154145b156108c45760018260060160006101000a81548160ff021916908315150217905550600182908060018154018082558091505060019003906000526020600020906008020160009091909190915060008201816000019080546104da90612756565b6104e59291906117a0565b5060018201816001019080546104fa90612756565b6105059291906117a0565b50600282018160020190805461051a90612756565b6105259291906117a0565b506003820160009054906101000a900473ffffffffffffffffffffffffffffffffffffffff168160030160006101000a81548173ffffffffffffffffffffffffffffffffffffffff021916908373ffffffffffffffffffffffffffffffffffffffff16021790555060048201548160040155600582015481600501556006820160009054906101000a900460ff168160060160006101000a81548160ff02191690831515021790555060078201816007019080546105e492919061182d565b505050600060016000805490506105fb9190612686565b81548110610632577f4e487b7100000000000000000000000000000000000000000000000000000000600052603260045260246000fd5b90600052602060002090600802016000858154811061067a577f4e487b7100000000000000000000000000000000000000000000000000000000600052603260045260246000fd5b9060005260206000209060080201600082018160000190805461069c90612756565b6106a79291906117a0565b5060018201816001019080546106bc90612756565b6106c79291906117a0565b5060028201816002019080546106dc90612756565b6106e79291906117a0565b506003820160009054906101000a900473ffffffffffffffffffffffffffffffffffffffff168160030160006101000a81548173ffffffffffffffffffffffffffffffffffffffff021916908373ffffffffffffffffffffffffffffffffffffffff16021790555060048201548160040155600582015481600501556006820160009054906101000a900460ff168160060160006101000a81548160ff02191690831515021790555060078201816007019080546107a692919061182d565b5090505060008054806107e2577f4e487b7100000000000000000000000000000000000000000000000000000000600052603160045260246000fd5b60019003818190600052602060002090600802016000808201600061080791906118b9565b60018201600061081791906118b9565b60028201600061082791906118b9565b6003820160006101000a81549073ffffffffffffffffffffffffffffffffffffffff0219169055600482016000905560058201600090556006820160006101000a81549060ff021916905560078201600061088291906118f9565b505090557f562099c771af1034e0fa4d272eeb12a622c0e7b284ff68212cc5ddd2c1b77d348483600501546040516108bb9291906124af565b60405180910390a15b50505050565b60606001805480602002602001604051908101604052809291908181526020016000905b82821015610c6157838290600052602060002090600802016040518061010001604052908160008201805461092290612756565b80601f016020809104026020016040519081016040528092919081815260200182805461094e90612756565b801561099b5780601f106109705761010080835404028352916020019161099b565b820191906000526020600020905b81548152906001019060200180831161097e57829003601f168201915b505050505081526020016001820180546109b490612756565b80601f01602080910402602001604051908101604052809291908181526020018280546109e090612756565b8015610a2d5780601f10610a0257610100808354040283529160200191610a2d565b820191906000526020600020905b815481529060010190602001808311610a1057829003601f168201915b50505050508152602001600282018054610a4690612756565b80601f0160208091040260200160405190810160405280929190818152602001828054610a7290612756565b8015610abf5780601f10610a9457610100808354040283529160200191610abf565b820191906000526020600020905b815481529060010190602001808311610aa257829003601f168201915b505050505081526020016003820160009054906101000a900473ffffffffffffffffffffffffffffffffffffffff1673ffffffffffffffffffffffffffffffffffffffff1673ffffffffffffffffffffffffffffffffffffffff16815260200160048201548152602001600582015481526020016006820160009054906101000a900460ff1615151515815260200160078201805480602002602001604051908101604052809291908181526020016000905b82821015610c4a5783829060005260206000209060030201604051806060016040529081600082018054610ba590612756565b80601f0160208091040260200160405190810160405280929190818152602001828054610bd190612756565b8015610c1e5780601f10610bf357610100808354040283529160200191610c1e565b820191906000526020600020905b815481529060010190602001808311610c0157829003601f168201915b505050505081526020016001820154815260200160028201548152505081526020019060010190610b72565b5050505081525050815260200190600101906108ee565b50505050905090565b60008311610cad576040517f08c379a0000000000000000000000000000000000000000000000000000000008152600401610ca49061242e565b60405180910390fd5b8051825114610cf1576040517f08c379a0000000000000000000000000000000000000000000000000000000008152600401610ce89061234e565b60405180910390fd5b6000805b8251811015610d5f57828181518110610d37577f4e487b7100000000000000000000000000000000000000000000000000000000600052603260045260246000fd5b602002602001015182610d4a9190612630565b91508080610d5790612788565b915050610cf5565b50838114610da2576040517f08c379a0000000000000000000000000000000000000000000000000000000008152600401610d99906123ae565b60405180910390fd5b600080600181600181540180825580915050039060005260206000209060080201905087816000019080519060200190610ddd92919061191d565b5086816001019080519060200190610df692919061191d565b5085816002019080519060200190610e0f92919061191d565b50338160030160006101000a81548173ffffffffffffffffffffffffffffffffffffffff021916908373ffffffffffffffffffffffffffffffffffffffff16021790555084816004018190555060005b8451811015610f7757816007016040518060600160405280878481518110610eb0577f4e487b7100000000000000000000000000000000000000000000000000000000600052603260045260246000fd5b60200260200101518152602001868481518110610ef6577f4e487b7100000000000000000000000000000000000000000000000000000000600052603260045260246000fd5b60200260200101518152602001600081525090806001815401808255809150506001900390600052602060002090600302016000909190919091506000820151816000019080519060200190610f4d92919061191d565b50602082015181600101556040820151816002015550508080610f6f90612788565b915050610e5f565b507f16e3b2e051775c2ea42dc5c41a2fb6e50d2c45b11809a6e36e31e56353508c5d6001600080549050610fab9190612686565b89893389604051610fc095949392919061244e565b60405180910390a15050505050505050565b60018181548110610fe257600080fd5b906000526020600020906008020160009150905080600001805461100590612756565b80601f016020809104026020016040519081016040528092919081815260200182805461103190612756565b801561107e5780601f106110535761010080835404028352916020019161107e565b820191906000526020600020905b81548152906001019060200180831161106157829003601f168201915b50505050509080600101805461109390612756565b80601f01602080910402602001604051908101604052809291908181526020018280546110bf90612756565b801561110c5780601f106110e15761010080835404028352916020019161110c565b820191906000526020600020905b8154815290600101906020018083116110ef57829003601f168201915b50505050509080600201805461112190612756565b80601f016020809104026020016040519081016040528092919081815260200182805461114d90612756565b801561119a5780601f1061116f5761010080835404028352916020019161119a565b820191906000526020600020905b81548152906001019060200180831161117d57829003601f168201915b5050505050908060030160009054906101000a900473ffffffffffffffffffffffffffffffffffffffff16908060040154908060050154908060060160009054906101000a900460ff16905087565b600081815481106111f957600080fd5b906000526020600020906008020160009150905080600001805461121c90612756565b80601f016020809104026020016040519081016040528092919081815260200182805461124890612756565b80156112955780601f1061126a57610100808354040283529160200191611295565b820191906000526020600020905b81548152906001019060200180831161127857829003601f168201915b5050505050908060010180546112aa90612756565b80601f01602080910402602001604051908101604052809291908181526020018280546112d690612756565b80156113235780601f106112f857610100808354040283529160200191611323565b820191906000526020600020905b81548152906001019060200180831161130657829003601f168201915b50505050509080600201805461133890612756565b80601f016020809104026020016040519081016040528092919081815260200182805461136490612756565b80156113b15780601f10611386576101008083540402835291602001916113b1565b820191906000526020600020905b81548152906001019060200180831161139457829003601f168201915b5050505050908060030160009054906101000a900473ffffffffffffffffffffffffffffffffffffffff16908060040154908060050154908060060160009054906101000a900460ff16905087565b60606000805480602002602001604051908101604052809291908181526020016000905b8282101561179757838290600052602060002090600802016040518061010001604052908160008201805461145890612756565b80601f016020809104026020016040519081016040528092919081815260200182805461148490612756565b80156114d15780601f106114a6576101008083540402835291602001916114d1565b820191906000526020600020905b8154815290600101906020018083116114b457829003601f168201915b505050505081526020016001820180546114ea90612756565b80601f016020809104026020016040519081016040528092919081815260200182805461151690612756565b80156115635780601f1061153857610100808354040283529160200191611563565b820191906000526020600020905b81548152906001019060200180831161154657829003601f168201915b5050505050815260200160028201805461157c90612756565b80601f01602080910402602001604051908101604052809291908181526020018280546115a890612756565b80156115f55780601f106115ca576101008083540402835291602001916115f5565b820191906000526020600020905b8154815290600101906020018083116115d857829003601f168201915b505050505081526020016003820160009054906101000a900473ffffffffffffffffffffffffffffffffffffffff1673ffffffffffffffffffffffffffffffffffffffff1673ffffffffffffffffffffffffffffffffffffffff16815260200160048201548152602001600582015481526020016006820160009054906101000a900460ff1615151515815260200160078201805480602002602001604051908101604052809291908181526020016000905b8282101561178057838290600052602060002090600302016040518060600160405290816000820180546116db90612756565b80601f016020809104026020016040519081016040528092919081815260200182805461170790612756565b80156117545780601f1061172957610100808354040283529160200191611754565b820191906000526020600020905b81548152906001019060200180831161173757829003601f168201915b5050505050815260200160018201548152602001600282015481525050815260200190600101906116a8565b505050508152505081526020019060010190611424565b50505050905090565b8280546117ac90612756565b90600052602060002090601f0160209004810192826117ce576000855561181c565b82601f106117df578054855561181c565b8280016001018555821561181c57600052602060002091601f016020900482015b8281111561181b578254825591600101919060010190611800565b5b50905061182991906119a3565b5090565b8280548282559060005260206000209060030281019282156118a85760005260206000209160030282015b828111156118a7578282600082018160000190805461187690612756565b6118819291906117a0565b506001820154816001015560028201548160020155505091600301919060030190611858565b5b5090506118b591906119c0565b5090565b5080546118c590612756565b6000825580601f106118d757506118f6565b601f0160209004906000526020600020908101906118f591906119a3565b5b50565b508054600082556003029060005260206000209081019061191a91906119c0565b50565b82805461192990612756565b90600052602060002090601f01602090048101928261194b5760008555611992565b82601f1061196457805160ff1916838001178555611992565b82800160010185558215611992579182015b82811115611991578251825591602001919060010190611976565b5b50905061199f91906119a3565b5090565b5b808211156119bc5760008160009055506001016119a4565b5090565b5b808211156119f357600080820160006119da91906118b9565b60018201600090556002820160009055506003016119c1565b5090565b6000611a0a611a0584612509565b6124d8565b9050808382526020820190508260005b85811015611a4a5781358501611a308882611b52565b845260208401935060208301925050600181019050611a1a565b5050509392505050565b6000611a67611a6284612535565b6124d8565b90508083825260208201905082856020860282011115611a8657600080fd5b60005b85811015611ab65781611a9c8882611b7c565b845260208401935060208301925050600181019050611a89565b5050509392505050565b6000611ad3611ace84612561565b6124d8565b905082815260208101848484011115611aeb57600080fd5b611af6848285612714565b509392505050565b600082601f830112611b0f57600080fd5b8135611b1f8482602086016119f7565b91505092915050565b600082601f830112611b3957600080fd5b8135611b49848260208601611a54565b91505092915050565b600082601f830112611b6357600080fd5b8135611b73848260208601611ac0565b91505092915050565b600081359050611b8b8161286f565b92915050565b600060208284031215611ba357600080fd5b600082013567ffffffffffffffff811115611bbd57600080fd5b611bc984828501611b52565b91505092915050565b60008060008060008060c08789031215611beb57600080fd5b600087013567ffffffffffffffff811115611c0557600080fd5b611c1189828a01611b52565b965050602087013567ffffffffffffffff811115611c2e57600080fd5b611c3a89828a01611b52565b955050604087013567ffffffffffffffff811115611c5757600080fd5b611c6389828a01611b52565b9450506060611c7489828a01611b7c565b935050608087013567ffffffffffffffff811115611c9157600080fd5b611c9d89828a01611afe565b92505060a087013567ffffffffffffffff811115611cba57600080fd5b611cc689828a01611b28565b9150509295509295509295565b600060208284031215611ce557600080fd5b6000611cf384828501611b7c565b91505092915050565b60008060408385031215611d0f57600080fd5b6000611d1d85828601611b7c565b9250506020611d2e85828601611b7c565b9150509250929050565b6000611d448383612153565b905092915050565b6000611d588383612218565b905092915050565b611d69816126cc565b82525050565b611d78816126cc565b82525050565b611d87816126ba565b82525050565b6000611d98826125b1565b611da281856125ec565b935083602082028501611db485612591565b8060005b85811015611df05784840389528151611dd18582611d38565b9450611ddc836125d2565b925060208a01995050600181019050611db8565b50829750879550505050505092915050565b6000611e0d826125bc565b611e1781856125fd565b935083602082028501611e29856125a1565b8060005b85811015611e655784840389528151611e468582611d4c565b9450611e51836125df565b925060208a01995050600181019050611e2d565b50829750879550505050505092915050565b611e80816126de565b82525050565b611e8f816126de565b82525050565b6000611ea0826125c7565b611eaa818561260e565b9350611eba818560208601612723565b611ec38161285e565b840191505092915050565b6000611ed9826125c7565b611ee3818561261f565b9350611ef3818560208601612723565b611efc8161285e565b840191505092915050565b6000611f1460228361261f565b91507f4d696c6573746f6e65206e616d657320616e6420676f616c73206d69736d617460008301527f63680000000000000000000000000000000000000000000000000000000000006020830152604082019050919050565b6000611f7a601f8361261f565b91507f446f6e6174696f6e206d7573742062652067726561746572207468616e2030006000830152602082019050919050565b6000611fba601f8361261f565b91507f446f6e6174696f6e2065786365656473206d696c6573746f6e6520676f616c006000830152602082019050919050565b6000611ffa602d8361261f565b91507f4d696c6573746f6e6520676f616c73206d7573742061646420757020746f207460008301527f686520746f74616c20676f616c000000000000000000000000000000000000006020830152604082019050919050565b600061206060148361261f565b91507f496e76616c6964206d696c6573746f6e652049440000000000000000000000006000830152602082019050919050565b60006120a0601a8361261f565b91507f43616d706169676e20616c726561647920636f6d706c657465640000000000006000830152602082019050919050565b60006120e060138361261f565b91507f496e76616c69642063616d706169676e204944000000000000000000000000006000830152602082019050919050565b6000612120601b8361261f565b91507f476f616c206d7573742062652067726561746572207468616e203000000000006000830152602082019050919050565b60006101008301600083015184820360008601526121718282611e95565b9150506020830151848203602086015261218b8282611e95565b915050604083015184820360408601526121a58282611e95565b91505060608301516121ba6060860182611d60565b5060808301516121cd6080860182612268565b5060a08301516121e060a0860182612268565b5060c08301516121f360c0860182611e77565b5060e083015184820360e086015261220b8282611e02565b9150508091505092915050565b600060608301600083015184820360008601526122358282611e95565b915050602083015161224a6020860182612268565b50604083015161225d6040860182612268565b508091505092915050565b6122718161270a565b82525050565b6122808161270a565b82525050565b600060208201905081810360008301526122a08184611d8d565b905092915050565b600060208201905081810360008301526122c28184611ece565b905092915050565b600060e08201905081810360008301526122e4818a611ece565b905081810360208301526122f88189611ece565b9050818103604083015261230c8188611ece565b905061231b6060830187611d6f565b6123286080830186612277565b61233560a0830185612277565b61234260c0830184611e86565b98975050505050505050565b6000602082019050818103600083015261236781611f07565b9050919050565b6000602082019050818103600083015261238781611f6d565b9050919050565b600060208201905081810360008301526123a781611fad565b9050919050565b600060208201905081810360008301526123c781611fed565b9050919050565b600060208201905081810360008301526123e781612053565b9050919050565b6000602082019050818103600083015261240781612093565b9050919050565b60006020820190508181036000830152612427816120d3565b9050919050565b6000602082019050818103600083015261244781612113565b9050919050565b600060a0820190506124636000830188612277565b81810360208301526124758187611ece565b905081810360408301526124898186611ece565b90506124986060830185611d7e565b6124a56080830184612277565b9695505050505050565b60006040820190506124c46000830185612277565b6124d16020830184612277565b9392505050565b6000604051905081810181811067ffffffffffffffff821117156124ff576124fe61282f565b5b8060405250919050565b600067ffffffffffffffff8211156125245761252361282f565b5b602082029050602081019050919050565b600067ffffffffffffffff8211156125505761254f61282f565b5b602082029050602081019050919050565b600067ffffffffffffffff82111561257c5761257b61282f565b5b601f19601f8301169050602081019050919050565b6000819050602082019050919050565b6000819050602082019050919050565b600081519050919050565b600081519050919050565b600081519050919050565b6000602082019050919050565b6000602082019050919050565b600082825260208201905092915050565b600082825260208201905092915050565b600082825260208201905092915050565b600082825260208201905092915050565b600061263b8261270a565b91506126468361270a565b9250827fffffffffffffffffffffffffffffffffffffffffffffffffffffffffffffffff0382111561267b5761267a6127d1565b5b828201905092915050565b60006126918261270a565b915061269c8361270a565b9250828210156126af576126ae6127d1565b5b828203905092915050565b60006126c5826126ea565b9050919050565b60006126d7826126ea565b9050919050565b60008115159050919050565b600073ffffffffffffffffffffffffffffffffffffffff82169050919050565b6000819050919050565b82818337600083830152505050565b60005b83811015612741578082015181840152602081019050612726565b83811115612750576000848401525b50505050565b6000600282049050600182168061276e57607f821691505b6020821081141561278257612781612800565b5b50919050565b60006127938261270a565b91507fffffffffffffffffffffffffffffffffffffffffffffffffffffffffffffffff8214156127c6576127c56127d1565b5b600182019050919050565b7f4e487b7100000000000000000000000000000000000000000000000000000000600052601160045260246000fd5b7f4e487b7100000000000000000000000000000000000000000000000000000000600052602260045260246000fd5b7f4e487b7100000000000000000000000000000000000000000000000000000000600052604160045260246000fd5b6000601f19601f8301169050919050565b6128788161270a565b811461288357600080fd5b5056fea2646970667358221220d757f904e19d41c98e0f8857aeec6a6810e71317f0f0acdfcdf77ad3248092fd64736f6c63430008000033",
  "immutableReferences": {},
  "source": "//SPDX-License-Identifier: MIT\r\npragma solidity ^0.8.0;\r\n\r\ncontract Crowdfunding {\r\n    struct Milestone {\r\n        string name;\r\n        uint256 goal;\r\n        uint256 funds;\r\n    }\r\n\r\n    struct Campaign {\r\n        string name;\r\n        string creatorName;\r\n        string description;\r\n        address payable creator;\r\n        uint256 goal;\r\n        uint256 funds;\r\n        bool completed;\r\n        Milestone[] milestones;\r\n    }\r\n\r\n    Campaign[] public activeCampaigns;\r\n    Campaign[] public completedCampaigns;\r\n\r\n    event CampaignCreated(uint256 campaignId, string name, string creatorName, address creator, uint256 goal);\r\n    event CampaignCompleted(uint256 campaignId, uint256 totalFunds);\r\n    event UserVerified(address indexed user, string message);\r\n\r\n    function logUserVerification(string memory _message) public {\r\n        emit UserVerified(msg.sender, _message);\r\n    }\r\n\r\n    function createCampaign(\r\n        string memory _name,\r\n        string memory _creatorName,\r\n        string memory _description,\r\n        uint256 _goal,\r\n        string[] memory _milestoneNames,\r\n        uint256[] memory _milestoneGoals\r\n    ) public {\r\n        require(_goal > 0, \"Goal must be greater than 0\");\r\n        require(_milestoneNames.length == _milestoneGoals.length, \"Milestone names and goals mismatch\");\r\n\r\n        uint256 totalMilestoneGoals = 0;\r\n        for (uint256 i = 0; i < _milestoneGoals.length; i++) {\r\n            totalMilestoneGoals += _milestoneGoals[i];\r\n        }\r\n        require(totalMilestoneGoals == _goal, \"Milestone goals must add up to the total goal\");\r\n\r\n        Campaign storage newCampaign = activeCampaigns.push();\r\n        newCampaign.name = _name;\r\n        newCampaign.creatorName = _creatorName;\r\n        newCampaign.description = _description;\r\n        newCampaign.creator = payable(msg.sender);\r\n        newCampaign.goal = _goal;\r\n\r\n        for (uint256 i = 0; i < _milestoneNames.length; i++) {\r\n            newCampaign.milestones.push(Milestone({\r\n                name: _milestoneNames[i],\r\n                goal: _milestoneGoals[i],\r\n                funds: 0\r\n            }));\r\n        }\r\n\r\n        emit CampaignCreated(activeCampaigns.length - 1, _name, _creatorName, msg.sender, _goal);\r\n    }\r\n\r\n    function donateToMilestone(uint256 _campaignId, uint256 _milestoneId) public payable {\r\n        require(_campaignId < activeCampaigns.length, \"Invalid campaign ID\");\r\n        Campaign storage campaign = activeCampaigns[_campaignId];\r\n        require(!campaign.completed, \"Campaign already completed\");\r\n\r\n        require(_milestoneId < campaign.milestones.length, \"Invalid milestone ID\");\r\n        require(msg.value > 0, \"Donation must be greater than 0\");\r\n\r\n        Milestone storage milestone = campaign.milestones[_milestoneId];\r\n        require(milestone.funds + msg.value <= milestone.goal, \"Donation exceeds milestone goal\");\r\n\r\n        milestone.funds += msg.value;\r\n        campaign.funds += msg.value;\r\n\r\n        // Check if milestone and campaign goals are met\r\n        if (milestone.funds == milestone.goal && campaign.funds == campaign.goal) {\r\n            campaign.completed = true;\r\n\r\n            // Move campaign to completedCampaigns\r\n            completedCampaigns.push(campaign);\r\n\r\n            // Remove campaign from activeCampaigns by replacing it with the last one\r\n            activeCampaigns[_campaignId] = activeCampaigns[activeCampaigns.length - 1];\r\n            activeCampaigns.pop();\r\n\r\n            emit CampaignCompleted(_campaignId, campaign.funds);\r\n        }\r\n    }\r\n\r\n    function getActiveCampaigns() public view returns (Campaign[] memory) {\r\n        return activeCampaigns;\r\n    }\r\n\r\n    function getCompletedCampaigns() public view returns (Campaign[] memory) {\r\n        return completedCampaigns;\r\n    }\r\n}",
  "sourcePath": "C:\\Users\\User\\OneDrive - mmu.edu.my\\Desktop\\Degree in CS\\Degree Third Year\\CCS6354 BLOCKCHAIN & SMART CONTRACTS\\Sandbox\\contracts\\Crowdfunding.sol",
  "compiler": {
    "name": "solc",
    "version": "0.8.0+commit.c7dfd78e.Emscripten.clang"
  },
  "schemaVersion": "3.4.16",
  "updatedAt": "2025-01-18T07:49:09.104Z",
  "networkType": "ethereum",
  "devdoc": {
    "kind": "dev",
    "methods": {},
    "version": 1
  },
  "userdoc": {
    "kind": "user",
    "methods": {},
    "version": 1
  }
}